S01E00004D616775697265496E5468654D6964646C65436F64652E737265639A
S11300000C942A000C943C000C943C000C943C008E
S11300100C943C000C943C000C943C000C943C006C
S11300200C943C000C943C000C943C000C943C005C
S11300300C943C000C943C000C943C000C943C004C
S11300400C943C000C943C000C943C000C943C003C
S11300500C943C0011241FBECFE5D8E0DEBFCDBF19
S113006021E0A0E6B0E001C01D92AC37B207E1F791
S11300700E9473020C9485020C940000ECE6F1E0FB
S113008086E090E0958384832FE030E037832683F5
S11300909183808313821282089560E070E018C017
S11300A0ECE6F1E0408151810280F381E02D9B0177
S11300B02E0F3F1FFA01E295F295F07FFE27E07FB5
S11300C0FE27EC59FF4FE20FF31F10826F5F7F4F43
S11300D0653071052CF380FF0EC020916C013091C6
S11300E06D012115310539F02150310930936D012D
S11300F020936C011FC081FF0EC020916E013091CE
S11301006F012F30310539F02F5F3F4F30936F016E
S113011020936E010FC082FF10C020916C013091BA
S11301206D01223031054CF42F5F3F4F30936D0148
S113013020936C0140E050E027C083FFFBCF809107
S11301406E0190916F010097A9F3019790936F014D
S113015080936E01EFCFECE6F1E0208131810280E3
S1130160F381E02DCA018E0F9F1FF901E295F295EC
S1130170F07FFE27E07FFE27EC59FF4FE80FF91FC1
S113018081E080834F5F5F4F4530510524F308952C
S113019040E050E016C0ECE6F1E020813181240F0C
S11301A0351F6281738122953295307F3227207FFB
S11301B032272C593F4FF901E60FF71F10824F5F8A
S11301C05F4F453051053CF380FF0EC020916C0118
S11301D030916D012115310539F0215031093093E9
S11301E06D0120936C011FC081FF0EC020916E0130
S11301F030916F012115310539F02F5F3F4F309356
S11302006F0120936E010FC082FF10C020916C011A
S113021030916D012F30310549F02F5F3F4F3093FE
S11302206D0120936C0120E030E026C083FFFBCFFA
S113023080916E0190916F018E309105A4F3019726
S113024090936F0180936E01EECFECE6F1E0808134
S11302509181820F931F4281538182959295907F61
S11302609827807F98278C599F4FFC01E40FF51F36
S113027041E040832F5F3F4F2530310534F308952B
S113028060E070E018C0ECE6F1E04085518502843E
S1130290F385E02D9B012E0F3F1FFA01E295F295A5
S11302A0F07FFE27E07FFE27EC59FF4FE20FF31F9C
S11302B010826F5F7F4F653071052CF380FF0EC095
S11302C020917401309175012E3031053CF021509C
S11302D0310930937501209374011FC081FF0EC052
S11302E020917601309177012F30310539F02F5F5D
S11302F03F4F30937701209376010FC082FF10C0E7
S113030020917401309175012115310549F02F5F59
S11303103F4F309375012093740140E050E027C0B3
S113032083FFFBCF80917601909177010097A9F329
S113033001979093770180937601EFCFECE6F1E09B
S1130340208531850284F385E02DCA018E0F9F1F1D
S1130350F901E295F295F07FFE27E07FFE27EC5944
S1130360FF4FE80FF91F81E080834F5F5F4F4530F7
S1130370510524F3089540E050E016C0ECE6F1E0A6
S113038024853585240F351F66857785229532951A
S1130390307F3227207F32272C593F4FF901E60F57
S11303A0F71F10824F5F5F4F453051053CF380FFCC
S11303B00EC020917801309179012115310539F071
S11303C02150310930937901209378011FC081FFB6
S11303D00EC020917A0130917B01223031053CF42A
S11303E02F5F3F4F30937B0120937A010FC082FF30
S11303F010C020917801309179012F30310549F0F6
S11304002F5F3F4F309379012093780120E030E053
S113041025C083FFFBCF80917A0190917B010097E7
S1130420A9F3019790937B0180937A01EFCFECE6D7
S1130430F1E084859585820F931F468557858295C3
S11304409295907F9827807F98278C599F4FFC0125
S1130450E40FF51F41E040832F5F3F4F2530310506
S113046034F308956115710519F40E944D0008953F
S11304706130710519F40E94C80008956230710555
S113048019F40E94400108956330710511F40E942B
S1130490BB01089540E050E01CC048BB80E090E000
S11304A013C0FA01E295F295F07FFE27E07FFE2764
S11304B0EC59FF4FE80FF91F2081222311F082BB72
S11304C002C020E122BB01968031910554F34F5FB5
S11304D05F4F403151050CF308958FEF87BB81BB0B
S11304E00E943E0008950E946D02C0E0D0E003C067
S11304F00E944A022196C233D105D4F362E070E02F
S111050081E090E00E943202F0CFF894FFCF29
S9030000FC
