S01900004D6174726978446973706C6179436F64652E7372656345
S11300000C942A000C9434000C9434000C943400A6
S11300100C9434000C9434000C9434000C9434008C
S11300200C9434000C9434000C9434000C9434007C
S11300300C9434000C9434000C9434000C9434006C
S11300400C9434000C9434000C9434000C9434005C
S11300500C94340011241FBECFE5D8E0DEBFCDBF21
S11300600E9436000C94E7000C940000CF93DF93B9
S1130070CDB7DEB7D2500FB6F894DEBF0FBECDBFFA
S1130080FE01319680E092E0DF019C011D92215037
S11300903040E1F781E090E09E878D87988B8F87D1
S11300A09A8B898B9C8B8B8BC757DF4F9983888363
S11300B0C958D040CF53DF4F99838883C15CD04067
S11300C0C152DF4F99838883CF5DD040CF51DF4F3A
S11300D099838883C15ED040C151DF4F998388835F
S11300E0CF5ED040CF50DF4F99838883C15FD0402B
S11300F0C150DF4F99838883CF5FD040CF5FDE4FFD
S113010099838883C150D140C15FDE4F998388832E
S1130110CF50D140CF5EDE4F99838883C151D14007
S1130120C15EDE4F99838883CF51D140CF5DDE4FCE
S113013099838883C152D140C15CDE4F99838883FF
S1130140CF53D140C351DE4F99838883CD5ED140D4
S1130150C151DE4F99838883CF5ED140CF50DE4FAB
S113016099838883C15FD140CD50DE4F99838883C2
S1130170C35FD1408FEF87BB81BB40E050E023C019
S113018048BB80E090E01AC0FA01E295F295F07F56
S1130190FE27E07FFE27E80FF91FEE0FFF1FA1E007
S11301A0B0E0AC0FBD1FEA0FFB1F20813181232B70
S11301B011F082BB02C020E122BB0196803191057F
S11301C01CF34F5F5F4F40315105D4F2D6CFF89402
S10501D0FFCF5B
S9030000FC
