S01A0000506164646C654D6F76656D656E74436F64652E73726563FA
S11300000C942A000C943C000C943C000C943C008E
S11300100C943C000C943C000C943C000C943C006C
S11300200C943C000C943C000C943C000C943C005C
S11300300C943C000C943C000C943C000C943C004C
S11300400C943C000C943C000C943C000C943C003C
S11300500C943C0011241FBECFE5D8E0DEBFCDBF19
S113006021E0A0E6B0E001C01D92AC37B207E1F791
S11300700E9475020C9498020C940000ECE6F1E0E6
S11300801182108286E090E0938382839583848337
S11300902FE030E037832683318720879387828758
S11300A09587848717861686089560E070E018C0E7
S11300B0ECE6F1E0408151810280F381E02D9B0167
S11300C02E0F3F1FFA01E295F295F07FFE27E07FA5
S11300D0FE27EC59FF4FE20FF31F10826F5F7F4F33
S11300E0653071052CF380FF0DC020916C013091B7
S11300F06D012115310531F02150310930936D0125
S113010020936C0181FF0DC020916E0130916F012D
S11301102B30310531F02F5F3F4F30936F01209327
S11301206E0182FF0DC020916C0130916D0122306F
S1130130310534F42F5F3F4F30936D0120936C01F0
S113014083FF0BC080916E0190916F01009729F09D
S1130150019790936F0180936E0140E050E019C0C5
S1130160ECE6F1E0208131810280F381E02DCA01C7
S11301708E0F9F1FF901E295F295F07FFE27E07F35
S1130180FE27EC59FF4FE80FF91F81E080834F5F92
S11301905F4F4530510524F3089540E050E016C008
S11301A0ECE6F1E024813581240F351F66817781E7
S11301B022953295307F3227207F32272C593F4FAA
S11301C0F901E60FF71F10824F5F5F4F453051056D
S11301D03CF380FF0DC02091700130917101211515
S11301E0310531F0215031093093710120937001B0
S11301F081FF0DC0209172013091730121153105E9
S113020031F02F5F3F4F309373012093720182FFCF
S11302100DC020917001309171012B30310531F006
S11302202F5F3F4F309371012093700183FF0CC007
S113023080917201909173018E3091052CF0019799
S1130240909373018093720120E030E017C0ECE6D4
S1130250F1E084819581820F931F468157818295B5
S11302609295907F9827807F98278C599F4FFC0107
S1130270E40FF51F41E040832F5F3F4F25303105E8
S113028034F3089560E070E018C0ECE6F1E04085D6
S113029051850284F385E02D9B012E0F3F1FFA0147
S11302A0E295F295F07FFE27E07FFE27EC59FF4FA1
S11302B0E20FF31F10826F5F7F4F653071052CF3DF
S11302C080FF0DC020917401309175012E303105ED
S11302D034F021503109309375012093740181FF6A
S11302E00DC020917601309177012B30310531F02A
S11302F02F5F3F4F309377012093760182FF0DC02B
S113030020917401309175012115310531F02F5F71
S11303103F4F309375012093740183FF0BC080918C
S1130320760190917701009729F0019790937701D6
S11303308093760140E050E019C0ECE6F1E02085BE
S113034031850284F385E02DCA018E0F9F1FF901C8
S1130350E295F295F07FFE27E07FFE27EC59FF4FF0
S1130360E80FF91F81E080834F5F5F4F45305105EF
S113037024F3089540E050E016C0ECE6F1E0248553
S11303803585240F351F6685778522953295307F14
S11303903227207F32272C593F4FF901E60FF71FF0
S11303A010824F5F5F4F453051053CF380FF0DC015
S11303B020917801309179012115310531F02150D6
S11303C03109309379012093780181FF0DC0209188
S11303D07A0130917B012230310534F42F5F3F4F95
S11303E030937B0120937A0182FF0DC02091780124
S11303F0309179012B30310531F02F5F3F4F30932D
S113040079012093780183FF0BC080917A01909148
S11304107B01009729F0019790937B0180937A01E7
S113042020E030E017C0ECE6F1E084859585820F8A
S1130430931F4685578582959295907F9827807F54
S113044098278C599F4FFC01E40FF51F41E040832E
S11304502F5F3F4F2530310534F308956115710541
S113046019F40E94550008956130710519F40E9431
S1130470CD0008956230710519F40E944201089577
S11304806330710511F40E94BA01089540E050E010
S113049022C042BB80E090E019C0FC01E295F295D5
S11304A0F07FFE27E07FFE27EC59FF4FE40FF51F96
S11304B02081222311F088BB02C020E128BBE9EF90
S11304C0F0E03197F1F700C000000196803191050A
S11304D024F34F5F5F4F40315105DCF208958FEFF5
S11304E087BB81BB0E943E0008950E946F020E9458
S11304F0460262E070E081E090E00E942E0260E03B
S113050070E082E090E00E942E0261E070E088E0FA
S113051090E00E942E0263E070E082E090E00E948E
S11305202E028FE493EC0197F1F700C00000DFCFB7
S1070530F894FFCF69
S9030000FC
