S018000042616C6C4D6F76656D656E74436F64652E73726563CB
S11300000C942A000C943C000C943C000C943C008E
S11300100C943C000C943C000C943C000C943C006C
S11300200C943C000C943C000C943C000C943C005C
S11300300C943C000C943C000C943C000C943C004C
S11300400C943C000C943C000C943C000C943C003C
S11300500C943C0011241FBECFE5D8E0DEBFCDBF19
S113006021E0A0E6B0E001C01D92AC37B207E1F791
S11300700E9405010C9416010C94000040E050E02D
S113008022C042BB80E090E019C0FC01E295F295E9
S1130090F07FFE27E07FFE27EC59FF4FE40FF51FAA
S11300A02081222311F088BB02C020E128BBE9EFA4
S11300B0F0E03197F1F700C000000196803191051E
S11300C024F34F5F5F4F40315105DCF20895EF9206
S11300D0FF920F931F93CF93DF93A0916000B09191
S11300E06100109721F48F3F2FEF920739F0AE3063
S11300F0B10549F48130910531F403C080E090E00A
S113010002C080E090E0E0906200F0906300E114AF
S1130110F10421F46F3FEFEF7E0741F0FEE0EF16AC
S1130120F10449F46130710531F403C060E070E01A
S113013002C060E070E0C0E0D0E01BC08A010E0D98
S11301401F1D9E012A0F3B1F22953295307F3227B7
S1130150207F32272C593F4F200F311FF901108285
S11301604F5F5F4F02C040E050E04230510534F32E
S11301702196C230D105BCF38A0F9B1FC0E6D0E0A4
S113018099838883DB01AE0DBF1DBB83AA83C0E0C6
S1130190D0E01BC0FA01EA0FFB1F9E01280F391F94
S11301A022953295307F3227207F32272C593F4FBA
S11301B0E20FF31F71E070834F5F5F4F02C040E0B6
S11301C050E04230510534F32196C230D105BCF3DE
S11301D0DF91CF911F910F91FF90EF9008958FEFD2
S11301E087BB81BBE4E6F1E081E090E09583848302
S11301F097838683E0E6F0E082E090E09183808359
S113020083E090E09383828308950E94EF000E942C
S11302103E0061E070E081E090E00E9467008FE4BE
S113022093EC0197F1F700C00000F1CFF894FFCFF1
S9030000FC
